:100000000C942A000C9447000C9447000C94470071
:100010000C9447000C9447000C9447000C94470044
:100020000C9447000C9447000C9447000C94470034
:100030000C9447000C9447000C9447000C94470024
:100040000C9447000C9447000C9447000C94470014
:100050000C94470011241FBECFE5D4E0DEBFCDBF16
:1000600010E0A0E6B0E0EEEFF2E002C005900D92E5
:10007000AC36B107D9F710E0ACE6B0E001C01D9294
:10008000AC36B107E1F70E94D4000C947D010C94CA
:100090000000282F207F25BBA898A998AA9A20EDB8
:1000A00037E0F9013197F1F7AA98F9013197F1F7A3
:1000B00090E044E0880F991F4A95E1F785BBA89826
:1000C000A998AA9AC9010197F1F7AA98C9010197BD
:1000D000F1F7089582E090E00E94490088E290E004
:1000E0000E94490086E090E00E9449008CE090E088
:1000F0000E94490081E090E00E9449000895282F65
:10010000207F25BBA89AA998AA9A20ED37E0F9018B
:100110003197F1F7AA98F9013197F1F790E054E09F
:10012000880F991F5A95E1F785BBA89AA998AA9AB2
:10013000C9010197F1F7AA98C9010197F1F708954C
:10014000CF93DF93EC0103C00E947F00219688814A
:100150008823D1F7DF91CF910895CF93DF93EC01FE
:1001600084E00E9449000EC0CE016AE070E00E9467
:100170006901805D0E947F00CE016AE070E00E940C
:100180006901EB01209781F786E00E944900DF9129
:10019000CF910895806487B987ED86B9349BFECFEF
:1001A00024B135B1C90108956F927F928F929F92C9
:1001B000AF92BF92CF92DF92EF92FF920F931F9375
:1001C000CF93DF938FEF84BB0E946A0080E29EE4AE
:1001D0000197F1F708ECE02EF12C15E0612EB1E467
:1001E0007B2EA7EDBA2EF0E2CF2EFEE4DF2EEAE062
:1001F0008E2E72E0972E60E4A62E81E00E944900C8
:1002000088EE93E0F7013197F1F70197D9F76ABAD1
:1002100081E08BBB77B8B6B8349BFECFC4B1D5B103
:10022000C6010197F1F78ABA9BBAA7B8B6B8349B52
:10023000FECF04B115B1C6010197F1F783E80E9422
:100240004900CE010E94AD0083EC0E944900C80124
:100250000E94AD0088E893E1F7013197F1F701972B
:10026000D9F7C639D1050CF4C8CF063911050CF4FD
:10027000C4CF81E0C039D8070CF4BFCF82E0C835C5
:10028000D8070CF4BACF82E0CC3BD8070CF4B5CF3A
:10029000C052D3400CF4B1CF81E0003918070CF400
:1002A000ACCF82E00C3B18070CF4A7CF00521340F0
:1002B0000CF4A3CF86E80E94490080E690E00E94FB
:1002C000A00080E29EE4F7013197F1F70197D9F79A
:1002D00094CFAA1BBB1B51E107C0AA1FBB1FA617C7
:1002E000B70710F0A61BB70B881F991F5A95A9F7DF
:0E02F00080959095BC01CD010895F894FFCF44
:0C02FE00446F6F72556E6C6F636B0000F4
:00000001FF
