:100000000C94F5020C941D030C941D030C941D0319
:100010000C941D030C941D030C941D030C941D03E0
:100020000C941D030C941D030C941D030C941D03D0
:100030000C941D030C941D030C941D030C941D03C0
:100040000C940E090C941D030C94F6070C94D00725
:100050000C941D030C941D030C941D030C941D03A0
:100060000C9458090C941D03A913AC13AF13B213CD
:10007000B513B813BB13BE13C113C413C713CA13EC
:1000800000000000250028002B00000000080002EE
:100090000100000304070000000000000000000051
:1000A0000000003E5B4F5B3E3E6B4F6B3E1C3E7C58
:1000B0003E1C183C7E3C181C577D571C1C5E7F5E06
:1000C0001C00183C1800FFE7C3E7FF0018241800C5
:1000D000FFE7DBE7FF30483A060E2629792926405C
:1000E0007F050507407F05253F5A3CE73C5A7F3E88
:1000F0001C1C08081C1C3E7F14227F22145F5F001A
:100100005F5F06097F017F006689956A60606060B5
:100110006094A2FFA29408047E040810207E2010A0
:1001200008082A1C08081C2A08081E101010100CA9
:100130001E0C1E0C30383E3830060E3E0E060000F7
:1001400000000000005F00000007000700147F149B
:100150007F14242A7F2A122313086462364956200A
:10016000500008070300001C2241000041221C002F
:100170002A1C7F1C2A08083E0808008070300008EE
:1001800008080808000060600020100804023E51C2
:1001900049453E00427F4000724949494621414954
:1001A0004D331814127F1027454545393C4A4949BB
:1001B0003141211109073649494936464949291E25
:1001C0000000140000004034000000081422411414
:1001D00014141414004122140802015909063E4166
:1001E0005D594E7C1211127C7F494949363E41418E
:1001F00041227F4141413E7F494949417F090909E7
:10020000013E414151737F0808087F00417F410052
:100210002040413F017F081422417F404040407F01
:10022000021C027F7F0408107F3E4141413E7F094E
:100230000909063E4151215E7F091929462649498F
:10024000493203017F01033F4040403F1F204020CF
:100250001F3F4038403F63140814630304780403CD
:100260006159494D43007F4141410204081020007B
:100270004141417F040201020440404040400003EC
:1002800007080020545478407F28444438384444B8
:100290004428384444287F385454541800087E09B0
:1002A0000218A4A49C787F0804047800447D4000D0
:1002B0002040403D007F1028440000417F40007CEA
:1002C000047804787C080404783844444438FC18E2
:1002D00024241818242418FC7C08040408485454C6
:1002E000542404043F44243C4040207C1C204020F3
:1002F0001C3C4030403C44281028444C9090907C5A
:100300004464544C4400083641000000770000006B
:100310004136080002010204023C2623263C1EA1AD
:10032000A161123A4040207A38545455592155550C
:1003300079412154547841215554784020545579BD
:10034000400C1E527212395555555939545454594E
:1003500039555454580000457C410002457D420007
:1003600001457C40F0292429F0F0282528F07C5410
:100370005545002054547C547C0A097F4932494930
:1003800049323248484832324A4848303A4141219D
:100390007A3A42402078009DA0A07D3944444439F7
:1003A0003D4040403D3C24FF2424487E4943662B89
:1003B0002FFC2F2BFF0929F620C0887E090320542B
:1003C0005479410000447D413048484A3238404029
:1003D000227A007A0A0A727D0D19317D2629292F89
:1003E00028262929292630484D40203808080808A1
:1003F00008080808382F10C8ACBA2F102834FA00A3
:10040000007B000008142A142222142A1408AA00CF
:100410005500AAAA55AA55AA000000FF0010101006
:10042000FF00141414FF001010FF00FF1010F01054
:10043000F0141414FC001414F700FF0000FF00FF78
:100440001414F404FC141417101F10101F101F14A0
:1004500014141F00101010F0000000001F101010E6
:10046000101F10101010F010000000FF10101010DE
:100470001010101010FF10000000FF140000FF000B
:10048000FF00001F10170000FC04F41414171017CD
:100490001414F404F40000FF00F7141414141414DA
:1004A00014F700F7141414171410101F101F14144D
:1004B00014F4141010F010F000001F101F000000C2
:1004C0001F14000000FC140000F010F01010FF10CA
:1004D000FF141414FF141010101F00000000F0107F
:1004E000FFFFFFFFFFF0F0F0F0F0FFFFFF00000064
:1004F0000000FFFF0F0F0F0F0F38444438447C2AD1
:100500002A3E147E02020606027E027E02635549DE
:1005100041633844443C04407E201E2006027E0293
:100520000299A5E7A5991C2A492A1C4C7201724C14
:10053000304A4D4D303048784830BC625A463D3ED6
:10054000494949007E0101017E2A2A2A2A2A444477
:100550005F444440514A444040444A51400000FFF7
:100560000103E080FF000008086B6B083612362498
:1005700036060F090F0600001818000000101000C2
:100580003040FF0101001F01011E00191D1712005C
:100590003C3C3C3C00000000000000000024002720
:1005A000002A000808081422221C00000000230072
:1005B00026002900040404040404040402020202C4
:1005C0000202030303030303010204081020408016
:1005D0000102040810200102040810201F1C1F1E25
:1005E0001F1E1F1F1E1F1E1F8A1711241FBECFEFA5
:1005F000D8E0DEBFCDBF14E0A0E0B1E0E2E9FAE36D
:1006000002C005900D92A832B107D9F725E0A8E203
:10061000B4E001C01D92A93EB207E1F712E0C5EFB8
:10062000D2E004C02197FE010E94351BC43FD107D0
:10063000C9F70E940A0F0C94471D0C940000FC019E
:10064000538D448D252F30E0842F90E0821B930B37
:10065000541710F0CF96089501970895FC01918DDD
:10066000828D981761F0828DDF01A80FB11D5D9614
:100670008C91928D9F5F9F73928F90E008958FEF82
:100680009FEF0895FC01918D828D981731F0828D36
:10069000E80FF11D858D90E008958FEF9FEF08958D
:1006A000FC01918D228D892F90E0805C9F4F821BF1
:1006B00091098F739927089584E195E00E94500372
:1006C00021E0892B09F420E0822F0895FC01848D1C
:1006D000DF01A80FB11DA35ABF4F2C91848D90E06C
:1006E00001968F739927848FA689B7892C93A08947
:1006F000B1898C9180648C93938D848D981306C0FE
:100700000288F389E02D80818F7D80830895EF92A8
:10071000FF920F931F93CF93DF93EC0181E0888FBB
:100720009B8D8C8D981305C0E889F989808185FDA2
:1007300024C0F62E0B8D10E00F5F1F4F0F73112793
:10074000E02E8C8DE8120CC00FB607FCFACFE889BA
:10075000F989808185FFF5CFCE010E946603F1CF34
:100760008B8DFE01E80FF11DE35AFF4FF0820B8FD6
:10077000EA89FB898081806207C0EE89FF896083F6
:10078000E889F98980818064808381E090E0DF914D
:10079000CF911F910F91FF90EF900895CF93DF932A
:1007A000EC01888D8823C9F0EA89FB89808185FD69
:1007B00005C0A889B9898C9186FD0FC00FB607FCCA
:1007C000F5CF808185FFF2CFA889B9898C9185FF0B
:1007D000EDCFCE010E946603E7CFDF91CF91089560
:1007E00080E090E0892B29F00E945C0381110C9439
:1007F000000008953FB7F894809196049091970473
:10080000A0919804B091990426B5A89B05C02F3FEC
:1008100019F00196A11DB11D3FBFBA2FA92F982F26
:100820008827820F911DA11DB11DBC01CD0142E0A1
:10083000660F771F881F991F4A95D1F7089585ED98
:100840008093BC008091BC0084FDFCCF1092E40436
:1008500008950895E091E6048091E504E81730F4E6
:10086000F0E0E951FB4F808190E008958FEF9FEF1A
:1008700008959091E6048091E504981750F4E92FCB
:10088000F0E0E951FB4F208130E09F5F9093E60458
:1008900002C02FEF3FEFC90108958091E50490E079
:1008A0002091E604821B91090895CF92DF92EF9286
:1008B000FF920F931F93CF93DF937C018A01809166
:1008C0009A04882389F0EB016B01C40ED51ECC1568
:1008D000DD05F1F06991D701ED91FC910190F08176
:1008E000E02DC7010995F3CF842F413288F4909110
:1008F000E404943069F440937004FB012EE434E086
:10090000D9019A2F921B981718F491919D93F9CFC2
:10091000C801DF91CF911F910F91FF90EF90DF9071
:10092000CF90089520919A042223C9F02091BD040C
:10093000203240F021E030E0FC013383228380E06C
:1009400090E0089580919B04E82FF0E0E456FB4F7F
:1009500060838F5F80939B048093BD0409C0809166
:10096000E404843029F481E08093700460934E04A1
:1009700081E090E00895FC0177FD68C08085918555
:10098000681779070CF062C057FD60C082859385B7
:10099000481759070CF05AC08589823059F08330C6
:1009A000B1F08130D1F48FE290E0861B970BBA0151
:1009B000AC0113C083E590E0FC01E61BF70BBF011F
:1009C0008FE290E0FC01E41BF50BAF0106C083E56C
:1009D00090E0841B950BAB01BC0164357105B0F54B
:1009E0004033510598F5CA01E3E095958795EA955E
:1009F000E1F747705527232BA1F024E5289FF0014C
:100A0000299FF00D11246E0F7F1FFB01E050FF4F57
:100A100081E090E001C0880F4A95EAF79081892B28
:100A200014C024E5289FF001299FF00D11246E0FBA
:100A30007F1FFB01E050FF4F81E090E001C0880F75
:100A40004A95EAF7809590818923808308950895D7
:100A50002F923F924F925F926F927F928F929F92CE
:100A6000AF92BF92CF92DF92EF92FF920F931F93BC
:100A7000CF93DF93CDB7DEB72D970FB6F894DEBFD7
:100A80000FBECDBFFC016A3069F424898685978545
:100A900038E0239F800D911D112497878687158646
:100AA0001486E4C06D3009F4E1C09D878C875489B9
:100AB0005983828993899D838C83A089B189BF835F
:100AC000AE8386849784C484D58480859185C81636
:100AD000D906BCF0EC85FD854489242F30E084855F
:100AE0009585F6E04F9F800D911D1124AC85BD8545
:100AF0001D969C938E931C9756964C91411192C0D3
:100B0000B5C0EC85FD85828593858816990614F716
:100B1000F981AF2EB12CC60126E0F29F800D911D08
:100B2000112418161906B4F6C50123E0880F991F81
:100B30002A95E1F7880D991D181619065CF655E0FF
:100B4000659FB001112416011A82CB018C199D09F1
:100B500099878887D4011896BB87AA87BA81B53050
:100B600049F0E885F985E20DF31DE256FF4F249127
:100B70002B8301C01B82240134013B8130FF13C051
:100B8000AC85BD85ED91FC91B981B13031F4008423
:100B9000F185E02D2E813F8119C00288F389E02D77
:100BA000EE80FF801EC0EC81FD812E813F81E21727
:100BB000F307F1F0AC85BD85ED91FC91B981B130C1
:100BC00059F40084F185E02D2C813D81A301B10110
:100BD0008C859D8509950CC00288F389E02DEC80F9
:100BE000FD8085019501A201B6018C859D85099541
:100BF000EB81E695EB83FFEF6F1A7F0A4A0C5B1CD3
:100C00002A853B856216730609F0B7CF3A813F5FAC
:100C10003A835FEF251A350ACA0CDB1C363009F01F
:100C20009DCF58CF4AEF4203B001439F700D11246E
:100C3000AC85BD8518964D915C911997460F571F4D
:100C4000481759079CF483E0220F331F8A95E1F778
:100C50001E968D919C911F97280F391F1F963C93CC
:100C60002E931E971D961C921E921C9781E090E079
:100C70002D960FB6F894DEBF0FBECDBFDF91CF919A
:100C80001F910F91FF90EF90DF90CF90BF90AF90AA
:100C90009F908F907F906F905F904F903F902F909C
:100CA0000895EF92FF920F931F93DC01ED91FC9159
:100CB00011971A960D911C911B9718962D913C91A6
:100CC00019970288F389E02D7B0140E050E060E055
:100CD00070E009951F910F91FF90EF9008956F922A
:100CE0007F928F929F92AF92BF92CF92DF92EF92BC
:100CF000FF920F931F93CF93DF936C015A0148012A
:100D0000EB013B01620E731EC615D70574F4D601C4
:100D1000ED91FC910484F585E02D87019401A501F6
:100D2000BE01C60109952196EFCFDF91CF911F91AA
:100D30000F91FF90EF90DF90CF90BF90AF909F907A
:100D40008F907F906F900895EF92FF920F931F9373
:100D5000DC01ED91FC91260F371F215031090284EF
:100D6000F385E02D78018A0109951F910F91FF907D
:100D7000EF900895EF92FF920F931F937801DC019B
:100D8000ED91FC91240F351F890101501109028456
:100D9000F385E02D9B0109951F910F91FF90EF9036
:100DA00008956F927F928F929F92AF92BF92CF924F
:100DB000DF92EF92FF920F931F93CF93DF93EC019B
:100DC0004B015A0169013801E881F9810684F785F0
:100DD000E02D87010995E881F981A501460D571D90
:100DE000415051090684F785E02D9601B401CE01EA
:100DF0000995E881F9810484F585E02D9301A50129
:100E0000B401CE010995E881F981C80CD91CB6015D
:100E1000615071090484F585E02D9301A501CE018F
:100E20000995DF91CF911F910F91FF90EF90DF9087
:100E3000CF90BF90AF909F908F907F906F900895CC
:100E40002F923F924F925F926F927F928F929F92DA
:100E5000AF92BF92CF92DF92EF92FF920F931F93C8
:100E6000CF93DF9300D01F92CDB7DEB74C017B83C9
:100E70006A836A01590117019801241B350B37FF5A
:100E800003C0319521953109C5014A815B81841BDD
:100E9000950B97FF03C091958195910951E0598376
:100EA0008217930714F019820BC09A2D8B2D5801CD
:100EB000092F182F9A818B81DB82CA82C92ED82EE6
:100EC0008A819B81A816B9065CF49C2D8D2D680142
:100ED000092F182F9A818B81BB82AA82A92EB82E46
:100EE0002501AA81BB814A1A5B0A38016C187D086A
:100EF00077FE03C0719461947108720157FE03C0BC
:100F0000BFEFEB1AFB0AF594E794C016D1061CF06C
:100F10000FEF1FEF1FC001E010E01CC0D401ED91E6
:100F2000FC91B9810084F185E02D9101BB23C1F0D2
:100F30004A815B81B601C4010995E618F708F7FEFE
:100F400004C0C00ED11EE40CF51CEA81FB81319671
:100F5000FB83EA834A815B81A416B506FCF604C0D4
:100F6000A6016A817B81E7CF0F900F900F90DF91F0
:100F7000CF911F910F91FF90EF90DF90CF90BF9096
:100F8000AF909F908F907F906F905F904F903F9029
:100F90002F900895089580E090E008950E94321DFA
:100FA0001F920F920FB60F9211242F933F934F93DE
:100FB0005F936F937F938F939F93AF93BF93EF93C1
:100FC000FF9384E195E00E946603FF91EF91BF914A
:100FD000AF919F918F917F916F915F914F913F91D1
:100FE0002F910F900FBE0F901F9018951F920F9288
:100FF0000FB60F9211242F938F939F93EF93FF932C
:10100000E0912405F09125058081E0912A05F09179
:101010002B0582FD12C0908180912D058F5F8F730B
:1010200020912E05821751F0E0912D05F0E0EC5E45
:10103000FA4F958F80932D0501C08081FF91EF912C
:101040009F918F912F910F900FBE0F901F90189529
:10105000833081F028F4813099F08230A1F0089536
:101060008730A9F08830B9F08430D1F480918000C5
:101070008F7D03C0809180008F77809380000895DA
:1010800084B58F7702C084B58F7D84BD089580912B
:10109000B0008F7703C08091B0008F7D8093B00047
:1010A00008951F93CF93DF93282F30E0F901E6577F
:1010B000FF4F8491F901E853FA4FD491F901EC54B0
:1010C000FA4FC491CC23C9F0162F81110E94280831
:1010D000EC2FF0E0EE0FFF1FE058FF4FA591B49109
:1010E0008FB7F894111105C09C91ED2FE095E9237D
:1010F00002C0EC91ED2BEC938FBFDF91CF911F914C
:101100000895CF93DF9390E0FC01E853FA4F2491C8
:10111000FC01EC54FA4F8491882361F190E0880F30
:10112000991FFC01E756FA4FC591D491FC01E05894
:10113000FF4FA591B491611109C09FB7F8948881C0
:10114000209582238883EC912E230BC0623061F4BA
:101150009FB7F8943881822F809583238883EC9100
:101160002E2B2C939FBF06C08FB7F894E8812E2BAF
:1011700028838FBFDF91CF9108958E3008F08E5075
:101180008770806480937C0080917A008064809373
:101190007A0080917A0086FDFCCF809178002091C2
:1011A000790090E0922B08958F929F92AF92BF9218
:1011B000CF92DF92EF92FF926B017C010E94FA03C3
:1011C0004B015C01C114D104E104F104F1F00E946F
:1011D000FA03DC01CB0188199909AA09BB09883EE9
:1011E0009340A105B10570F321E0C21AD108E108CE
:1011F000F10888EE880E83E0981EA11CB11CC11472
:10120000D104E104F10419F7DDCFFF90EF90DF90F6
:10121000CF90BF90AF909F908F9008951F920F92A4
:101220000FB60F9211242F933F938F939F93AF93F9
:10123000BF938091280490912904A0912A04B09131
:101240002B043091950423E0230F2D3720F40196D1
:10125000A11DB11D05C026E8230F0296A11DB11DD9
:10126000209395048093280490932904A0932A0442
:10127000B0932B048091960490919704A0919804C8
:10128000B09199040196A11DB11D8093960490938D
:101290009704A0939804B0939904BF91AF919F9144
:1012A0008F913F912F910F900FBE0F901F90189527
:1012B0001F920F920FB60F9211242F933F934F93CB
:1012C0005F936F937F938F939F93AF93BF93EF93AE
:1012D000FF938091B900887F803609F49CC068F53F
:1012E000883209F45BC090F4803109F454C038F4BA
:1012F000882309F4F3C0883009F44DC0F3C0883165
:1013000009F44CC0803209F45DC0ECC0803409F4AB
:1013100068C048F4803309F455C0883309F0E2C04E
:101320008093E204D5C0803509F44FC0883509F4B4
:101330005DC0883409F0D6C0D3C0883909F4C4C070
:10134000A8F4883709F467C038F4883609F463C014
:10135000803709F460C0C6C0883809F4B5C0803948
:1013600009F45FC0803809F0BDC05BC0803B09F460
:1013700083C038F4803A09F466C0883A09F47CC026
:10138000B1C0803C09F4A4C0883C09F4A1C0883BEA
:1013900009F487C0A7C08091DF0410C09091E104D8
:1013A0008091E004981770F5E091E10481E08E0FE0
:1013B0008093E104F0E0E254FB4F80818093BB0016
:1013C00085EC83C08093E2048BC0E091E10481E06E
:1013D0008E0F8093E1048091BB00F0E0E254FB4F5C
:1013E00080839091E1048091E0046BC0E091E1047E
:1013F00081E08E0F8093E1048091BB00F0E0E25425
:10140000FB4F80838091E30481116AC081E0809367
:10141000DE0484EA5EC083E08093E40410929404C6
:10142000CFCF80919404803208F04EC0E0919404B4
:1014300081E08E0F809394048091BB00F0E0EC5823
:10144000FB4F8083BDCF80919404803230F4E091D3
:101450009404F0E0EC58FB4F10820E941F0460914E
:10146000940470E0E0917204F091730484E794E0D6
:101470000995109294042CC084E08093E4041092A7
:10148000710410927004E0916E04F0916F0409955C
:1014900080917004811105C081E0809370041092E6
:1014A0004E04E091710481E08E0F80937104F0E0AE
:1014B000E25BFB4F80818093BB009091710480912F
:1014C0007004981708F47CCF85E88093BC000AC0AC
:1014D00085EC8093BC001092E40404C01092E204F6
:1014E0000E941F04FF91EF91BF91AF919F918F9147
:1014F0007F916F915F914F913F912F910F900FBE10
:101500000F901F9018959091DA059F3F21F49091CC
:10151000DB059F3F59F128E030E040E8E091E1052C
:10152000F091E20550819091E40590959523908388
:10153000E091DF05F091E0059091E305542F5823E9
:1015400019F05081952B03C050819095952390837D
:10155000E091E105F091E20550819091E405952B31
:101560009083469521503109C9F608958EBD0DB47A
:1015700007FEFDCF8EB50895CF93DF93BC0184E1C4
:1015800095E00E94F50EEC0168E174E084E195E0DD
:101590000E94F50E8C0F9D1FDF91CF910895AF92A1
:1015A000BF92CF92DF92FF920F931F93CF93DF935F
:1015B000E7EDF5E0C491E3ECF5E0E491F0E0EE0F47
:1015C000FF1FE655FA4F0591149161E08FE00E94EC
:1015D000810860E08FE00E94510862E170E080E0E5
:1015E00090E00E94D40861E08FE00E94510860E022
:1015F0008FE00E94810820E233E0D8018C918C2397
:1016000029F021503109C9F7DDEF63C020E931E04D
:10161000F80180818C2329F421503109C9F7DCEFCE
:1016200058C020E931E0D8018C918C2329F0215059
:101630003109C9F7DBEF4DC0F12C80E8D0E060E064
:1016400070E020E931E0E0E9F1E048E290E050E9C3
:10165000A52EBB24B394D8015C915C2349F5992352
:1016600039F1483261F42E173F0708F4F901B5014A
:101670006E1B7F0B769567957695679507C06F0112
:10168000C61AD70AC216D30608F0D82B90E0959553
:101690008795009751F48F2D90E0895F9A4FDC0178
:1016A0001896DC93F394D0E080E8415020E931E0D3
:1016B0002150310969F0952F4111CDCF61E08FE0C4
:1016C0000E94810861E08FE00E945108D0E001C0D3
:1016D000DEEFC0910F05CF77C0930F051091110574
:1016E0001F77109311056C2F70E080E090E00E944E
:1016F0006A18609307057093080580930905909315
:101700000A05612F70E080E090E00E946A18609303
:101710000B0570930C0580930D0590930E05C10F7A
:10172000809113058C13DFEF8D2FDF91CF911F91E7
:101730000F91FF90DF90CF90BF90AF900895CF931F
:10174000C82F60E08091DC050E9451088091DE0581
:1017500018161CF460E00E9451088C2F0E94830A26
:101760008091DE05181624F461E0CF910C945108A5
:10177000CF910895EF92FF920F931F93CF9380E044
:10178000E82E81E0F82EC0E08C2F80640E949F0B31
:1017900080E80E949F0B61E08091DC050E94510867
:1017A0008091DE0518161CF460E00E94510800E0EC
:1017B00010E0F701E00FF11F80810E94830A0F5FA4
:1017C0001F4F04351105A9F78091DE0518161CF48A
:1017D00061E00E945108CF5F84E5E80EF11CC6303D
:1017E00099F680E4CF911F910F91FF90EF900C94A8
:1017F0009F0B8F929F92AF92BF92CF92DF92EF9208
:10180000FF920F931F93CF93DF935C01C3EAD5E060
:1018100080E8882E912CCB01835A95407C0100E012
:1018200010E06701CC0EDD1EFE01849190E0940172
:10183000002E02C0359527950A94E2F78223932360
:10184000892B81F0E091C305F091C4050084F185F6
:10185000E02D21E030E0A601B8016A0D7B1D83EC8C
:1018600095E009950F5F1F4F08301105E9F62196A5
:10187000F5E0CB3ADF0799F6DF91CF911F910F91F9
:10188000FF90EF90DF90CF90BF90AF909F908F90A0
:1018900008959091E4049111FCCF813208F080E228
:1018A00091E09093E4049093E3042FEF2093E204FB
:1018B0001092E104280F2093E0049093DF049091AC
:1018C000DF04906D9093DF049091DE04913041F439
:1018D0001092DE049091DF049093BB0095EC01C060
:1018E00095EE9093BC009091E4049130E1F39091D7
:1018F000E104981710F48091E104AEEBB4E027EE18
:1019000034E0F9019E2F921B981718F49D91919342
:10191000F9CF1092E6048093E50408952091BD0468
:101920009091BC04213208F046C08091E4048111FA
:10193000FCCF32E03093E40431E03093E3043FEF36
:101940003093E2041092E1042093E004ACE9B4E0A7
:101950004EEB54E0FA013E2F341B321718F43D9140
:101960003193F9CF1092DF042091DF04990F922B6D
:101970009093DF049091DE04913041F41092DE04E4
:101980009091DF049093BB0095EC01C095EE90938D
:10199000BC009091E4049230E1F39091E2049F3F07
:1019A00079F08091E204803241F08091E20480334A
:1019B00031F084E005C081E003C082E001C083E033
:1019C00010929B041092BD0410929A040895EF9215
:1019D000FF920F931F93CF93DF93EC017B018A015A
:1019E00088819981009729F02A813B812417350746
:1019F000F8F4B8016F5F7F4F0E94681C009759F0A0
:101A0000998388831B830A832C813D81232B81F456
:101A1000FC0110820DC088819981009711F00E940D
:101A2000D01B198218821D821C821B821A8207C059
:101A30001D830C83B701888199810E94401DCE01CE
:101A4000DF91CF911F910F91FF90EF900895CF9369
:101A5000DF93EC016115710559F0FB010190002045
:101A6000E9F73197AF01461B570B0E94E70C0CC0FA
:101A700088819981009711F00E94D01B19821882E9
:101A80001D821C821B821A82CE01DF91CF910895A4
:101A90004F925F926F927F92EF92FF920F931F93FC
:101AA000CF93DF93CDB7DEB7A1970FB6F894DEBF23
:101AB0000FBECDBF7C01FA01CB0119A2223008F480
:101AC0002AE08E010F5D1F4F422E512C612C712C8C
:101AD000BF01A30192010E94C019F901CA0101507E
:101AE00011096A3014F4605D01C0695CD8016C931F
:101AF000232B242B252B61F7B801C7010E94F50E7B
:101B0000A1960FB6F894DEBF0FBECDBFDF91CF9187
:101B10001F910F91FF90EF907F906F905F904F908B
:101B20000895DC01ED91FC910190F081E02D099484
:101B3000CF92DF92EF92FF92CF93DF936C01990FD8
:101B4000EE08FF08F7FE16C06DE284E195E00E9402
:101B5000910DEC0144275527BA014C195D096E0916
:101B60007F092AE084E195E00E94480D7C01EC0E9B
:101B7000FD1E08C02AE0B701A60184E195E00E949D
:101B8000480D7C0168E174E084E195E00E94F50E67
:101B90008E0D9F1DDF91CF91FF90EF90DF90CF9042
:101BA00008954F925F926F927F928F929F92AF9221
:101BB000BF92CF92DF92EF92FF92CF93DF93EC012F
:101BC0006A017B01B22E9A01AB01C701B6010E94E6
:101BD000FC1A882319F06BE174E027C02601370155
:101BE000E89477F82FEF3FEF4FE75FE7C301B201CB
:101BF0000E94FC1A81110DC02FEF3FEF4FE75FE706
:101C0000C301B2010E94651818161CF46FE174E05C
:101C10000CC02FEF3FEF4FE75FE4C701B6010E9412
:101C2000F71A18169CF463E274E0CE01DF91CF91AD
:101C3000FF90EF90DF90CF90BF90AF909F908F90EC
:101C40007F906F905F904F900C94F50E2FEF3FEFC9
:101C50004FE75FECC701B6010E94651887FDE3CF2F
:101C600020E030E0A901C701B6010E94651887FF96
:101C70000AC06DE2CE010E94910D4C01F7FAF0947A
:101C8000F7F8F09402C0812C912CA12C60E070E058
:101C900080E09FE3AB1441F020E030E040E251E40B
:101CA0000E944F1AA394F6CF9B01AC01C701B60165
:101CB0000E94E3192B013C010E94C81A6B017C01B0
:101CC0000E946A189B01AC01C301B2010E94E21993
:101CD0002B013C012AE0B701A601CE010E94480D6C
:101CE0007C01E80CF91CBB2031F06EE2CE010E94B1
:101CF000910DE80EF91EDB2CDD2029F120E030E00B
:101D000040E251E4C301B2010E94CB182B013C0117
:101D10000E94C81A4B01A12CB12C2AE0B501A401E4
:101D2000CE010E94480DE80EF91EC501B4010E94C3
:101D30006A189B01AC01C301B2010E94E2192B0198
:101D40003C01DA94D9CFC701DF91CF91FF90EF909A
:101D5000DF90CF90BF90AF909F908F907F906F90CB
:101D60005F904F900895CF93DF93AB01BC0122E0C9
:101D700084E195E00E94D10DEC0168E174E084E11A
:101D800095E00E94F50E8C0F9D1FDF91CF91089575
:101D90000C94F50ECF92DF92EF92FF920F931F9368
:101DA000CF93DF936C017A018B01C0E0D0E0CE15B8
:101DB000DF0589F0D8016D918D01D601ED91FC917F
:101DC0000190F081E02DC6010995892B11F47E0167
:101DD00002C02196ECCFC701DF91CF911F910F91E7
:101DE000FF90EF90DF90CF9008956115710579F025
:101DF000FB0101900020E9F73197AF01461B570B1B
:101E0000DC01ED91FC910280F381E02D099480E0EA
:101E100090E00895CF93DF9300D000D000D0CDB7ED
:101E2000DEB7789484B5826084BD84B5816084BD5A
:101E300085B5826085BD85B5816085BD80916E0068
:101E4000816080936E001092810080918100826099
:101E500080938100809181008160809381008091D6
:101E600080008160809380008091B10084608093C5
:101E7000B1008091B00081608093B00080917A00C1
:101E8000846080937A0080917A00826080937A00E7
:101E900080917A00816080937A0080917A008068D6
:101EA00080937A001092C1001092E6041092E5042B
:101EB00010929B041092BD041092E40481E0809380
:101EC000E3041092DE0461E082E10E94510861E0C7
:101ED00083E10E9451088091B9008E7F8093B90000
:101EE0008091B9008D7F8093B90088E48093B80019
:101EF00085E48093BC006AE070E080E090E00E949E
:101F0000D4088EE00E94BD08BC01990F880B990B84
:101F10000E946C1820E030E040EA50E40E94CB18A8
:101F200020E030E048EC52E40E94CB1820E030E0A2
:101F300040E85AE30E94CB1860934A0470934B0424
:101F400080934C0490934D046AE070E080E090E050
:101F50000E94D4080E94CF0A60913E0470913F0411
:101F6000072E000C880B990B0E946C182091070516
:101F7000309108054091090550910A050E94E31926
:101F80000E94C11A70934904609348046AE070E0AB
:101F900080E090E00E94D40880E10E94BD08BC016E
:101FA000990F880B990B0E946C182AE038E240EADE
:101FB0005BE30E94CB186B017C016093300470934B
:101FC0003104809332049093330420E038E947E3EE
:101FD00057E40E944F1A4B015C0160932C047093EC
:101FE0002D0480932E0490932F04A701960160E0A6
:101FF00070E080EA90E40E94E219A50194010E9439
:102000004F1A9B01AC0160933604709337048093A0
:1020100038049093390460E070E080E89FE30E9408
:102020004F1A2AE037ED4FE753E40E94CB1820E027
:1020300030E04AE754E40E94CB1860934404709364
:10204000450480934604909347046AE070E080E082
:1020500090E00E94D4088091DA058F3F29F4909196
:10206000DB059F3F09F41BC761E00E94810861E026
:102070008091DB050E9481088091DB05082E000C11
:10208000990BFC01EC54FA4FE491F0E0EE0FFF1FC6
:10209000E058FF4F259134913093E2052093E105FC
:1020A000FC01E853FA4FE491E093E4058091DA05EE
:1020B000082E000C990BFC01EC54FA4FE491F0E06F
:1020C000EE0FFF1FE058FF4F259134913093E0054C
:1020D0002093DF05FC01E853FA4FE491E093E30518
:1020E00061E08091DC050E9481088091DD05181671
:1020F0001CF461E00E9481088091DE0518161CF432
:1021000061E00E9481088091DD05181674F460E09A
:102110000E94510864EF71E080E090E00E94D408D2
:1021200061E08091DD050E94510881E20E949F0BD1
:1021300084E10E949F0B88EA0E949F0B80E20E942C
:102140009F0B8CE00E949F0B0E94BA0B81E20E94C1
:102150009F0B82EB0E949F0B80E20E949F0B70E01E
:10216000C72E71E0D72EE8EFAE2EBB24B394D60174
:10217000F5011D923197E9F71092D0051092CF0525
:102180001092D2051092D1050E94BA0BEE24E3946E
:10219000F12C00E310E024E530E040E050E060E0A6
:1021A00070E083EC95E00E94D1060EE210E022E59B
:1021B00030E041E050E061E070E083EC95E00E94A7
:1021C000D10683E08093D70580E190E09093D0051D
:1021D0008093CF058DE090E09093D2058093D10558
:1021E0000E94BA0BD601F5011D923197E9F71092C2
:1021F000D0051092CF051092D2051092D10560E063
:102200008EE00E94810860E08FE00E94810860E01B
:1022100080E10E94810861E087E00E94810860E01F
:1022200086E00E94810861E087E00E94510861E039
:1022300086E00E9451082FB7F8948091280490916D
:102240002904A0912A04B0912B042FBF809340044D
:1022500090934104A0934204B0934304E091240579
:10226000F091250582E08083E0912005F091210521
:102270001082E0912205F09123058FEC808310926B
:102280002C05E0912805F091290586E08083E091F6
:102290002605F0912705808180618083E0912605E5
:1022A000F0912705808188608083E0912605F09178
:1022B0002705808180688083E0912605F0912705BD
:1022C00080818F7D808381E080939A0488E680936B
:1022D000BC0410929B041092BD0460E081EB95E079
:1022E0000E9492040E948E0C81E090E00E94490CB2
:1022F00081EB95E00E94390487FF04C08EE393E0F0
:102300000E94BC0A8AE194E00E94BC0A64E573E082
:1023100084E195E00E94C80E8091480490914904A0
:102320000E94980D8AE194E00E94BC0A67E673E07F
:1023300084E195E00E94C80E60914A0470914B04BC
:1023400080914C0490914D040E94B30E8AE194E078
:102350000E94BC0A6AE773E084E195E00E94C80E1F
:102360006091440470914504809146049091470423
:102370000E94B30E8AE194E00E94BC0A8DE893E0CB
:102380000E94BC0A8AE194E00E94BC0ABB24B39478
:1023900056E1252E312C8CED95E0AB2CA81A01E0EE
:1023A00010E060E3462E512CB0929A0488E68093A8
:1023B000BC0410929B041092BD0460E081EB95E098
:1023C0000E9492040E948E0C87E090E00E94490CCB
:1023D00081EB95E00E9439048F77982F92959F703A
:1023E000EAEFCE2ED82E9C9DD00C112481EB95E0E7
:1023F0000E9439049C013327F4E035952795FA951E
:10240000E1F7982EC29E900C112481EB95E00E947A
:1024100039049C013327A4E035952795AA95E1F767
:10242000E82EC29EE00C112481EB95E00E94390455
:1024300081EB95E00E9439049C013327B4E0359587
:102440002795BA95E1F7F82EC29EF00C112481EB86
:1024500095E00E9439049C01332794E03595279537
:102460009A95E1F7882EC29E800C112481EB95E0AD
:102470000E9439049C01332744E0359527954A95FD
:10248000E1F7C29E800D11248093BD058092BE05A8
:10249000F092BF05E092C0059092C105D092C205AE
:1024A0008D2D69E10E94011B282F37EE3203300188
:1024B00011246D0C711C83E08093D70569E06616CA
:1024C00071040CF073C01093D6050093D5051093DA
:1024D000D4050093D3051092D0051092CF05109229
:1024E000D2051092D10579E07E1548F06BE873E0D3
:1024F00083EC95E00E94C80E4091C00501C04E2DAE
:1025000050E060E070E02AE083EC95E00E94480D26
:1025100073E0F72EF092D70581E290E09093D0051A
:102520008093CF051093D2050093D10569EA73E03B
:1025300083EC95E00E94C80EF092D7055092D0052A
:102540004092CF051092D2051092D1054091C1055D
:102550004A3040F46BEA73E083EC95E00E94C80EC9
:102560004091C10550E060E070E02AE083EC95E026
:102570000E94480DB092D705A3E2B0E0B093D00519
:10258000A093CF053092D2052092D1054091C2058B
:102590004A3040F46BEA73E083EC95E00E94C80E89
:1025A0004091C20550E060E070E01BC11092D00580
:1025B0001092CF051092D2051092D105B9E0BF1547
:1025C00048F06BEA73E083EC95E00E94C80E4091FE
:1025D000BF0501C04F2D50E060E070E02AE083ECC1
:1025E00095E00E94480D1092D0051092CF053092D0
:1025F000D2052092D105B092D7051A8219821C8289
:102600001B821E821D8240E050E06AE174E0CE0130
:1026100001960E94E70C6091BE059091BD05492F7F
:1026200050E02091BF0530E0ECEDF5E08A2D8E0FF3
:10263000861728F48491280F311D3196F7CF633027
:1026400020F0937011F42F5F3F4FEDE6F1E04E9FC5
:10265000C0014F9F900D5E9F900D112405964D5F18
:102660005F4F5695479556954795840F951F820F56
:10267000931F67E070E00E940D1B8330A1F028F4E7
:10268000813059F0823061F005C0853091F070F0F2
:10269000863091F06DEA73E011C065EB73E00EC017
:1026A0006DEB73E00BC063EC73E008C06AEC73E0A1
:1026B00005C061ED73E002C067ED73E0CE010196E5
:1026C0000E94270D4D815E8169817A8183EC95E0BE
:1026D0000E94CA0E89819A810E94D01B21E230E0BB
:1026E0003093D0052093CF051093D2050093D105E8
:1026F00083E08093D70569EA73E083EC95E00E945C
:10270000C80E5092D0054092CF0564E070E07093FF
:10271000D2056093D10582E08093D7051A82198291
:102720001C821B821E821D8240E050E06AE174E040
:10273000CE0101960E94E70CE091BE058E2F90E03D
:10274000FC013197EC30F10558F5EC5CFF4F0C942F
:10275000351B6EED73E020C062EE73E01DC066EEC7
:1027600073E01AC06AEE73E017C06EEE73E014C037
:1027700062EF73E011C066EF73E00EC06AEF73E0C2
:102780000BC06EEF73E008C062E074E005C066E065
:1027900074E002C06AE074E0CE0101960E94270D49
:1027A0004D815E8169817A8183EC95E00E94CA0E39
:1027B00089819A810E94D01B8CE390E09093D00590
:1027C0008093CF053092D2052092D105B092D705E3
:1027D0004091BD0550E04053584F052E000C660B4C
:1027E000770B2AE083EC95E00E94480D1092D0050B
:1027F0001092CF058CE190E09093D2058093D105A3
:1028000099E0691671040CF05EC082E08093D705F0
:102810001093D6050093D5051093D4050093D305E6
:1028200083E090E09093D0058093CF0580E2E82E7E
:10283000F12CF092D205E092D10540914A045091DA
:102840004B0460914C0470914D0421E083EC95E0C1
:102850000E94D10D83E390E09093D0058093CF0543
:10286000F092D205E092D1056BEA73E083EC95E03B
:102870000E94C80E87E490E09093D0058093CF0526
:10288000F092D205E092D1056EE074E083EC95E021
:102890000E94C80EB092D7051093D6050093D505B7
:1028A0001093D4050093D30581E490E09093D00574
:1028B0008093CF058EE190E09093D2058093D1056F
:1028C0006CED73E01AC1C3010997069708F065C063
:1028D00082E08093D7058BE090E09093D0058093C1
:1028E000CF0580E290E09093D2058093D105C0900F
:1028F0004804D09049040D2C000CEE08FF08F7FEA8
:102900000EC06DE283EC95E00E94910D442755279F
:10291000BA014C195D096E097F092AE003C02AE05B
:10292000B701A60183EC95E00E94480D85E390E095
:102930009093D0058093CF05B0E2EB2EF12CF0926E
:10294000D205E092D10560E174E083EC95E00E944D
:10295000C80E60E270E085E490E00E94F90B63E24B
:1029600070E08FE390E00E94F90B82E08093D7053E
:102970001093D6050093D5051093D4050093D30585
:1029800087E290E09093D0058093CF05F092D20536
:10299000E092D10562E174E0B0C082E08093D70597
:1029A0001093D6050093D5051093D4050093D30555
:1029B000C0904404D0904504E0904604F090470451
:1029C00020E030EC49E754E4C701B6010E94F71A51
:1029D00018169CF4A0E28A2E912C9092D205809237
:1029E000D10520E0B701A60183EC95E00E94D10D4E
:1029F0005092D0054092CF057AC020E030E046ECFE
:102A000052E4C701B6010E94F71A18160CF520E02F
:102A100030E04AE754E4C701B6010E94651887FF19
:102A200017C086E090E09093D0058093CF05F0E248
:102A30008F2E912C9092D2058092D10520E0B70183
:102A4000A60183EC95E00E94D10D8DE290E04BC091
:102A500020E030E040E151E4C701B6010E94F71ADE
:102A600018160CF520E030E048EC52E4C701B6013E
:102A70000E94651887FF17C08BE090E09093D00507
:102A80008093CF05E0E28E2E912C9092D205809219
:102A9000D10520E0B701A60183EC95E00E94D10D9D
:102AA00088E290E020C020E030E040E251E4C7013D
:102AB000B6010E94651887FF24C086E090E09093DD
:102AC000D0058093CF0570E2872E912C9092D2058D
:102AD0008092D10521E0B701A60183EC95E00E9428
:102AE000D10D8CE290E09093D0058093CF05909229
:102AF000D2058092D10564E174E083EC95E00E94F8
:102B0000C80E0E94BA0BE0E9F0E08491EEECF5E02B
:102B1000F490EAEBF5E0E490EE2009F4E3C18111D2
:102B20000E942808EE2DF0E0EE0FFF1FE655FA4F49
:102B3000A591B491EC91FE2209F4D4C12FB7F89479
:102B40008091280490912904A0912A04B0912B042B
:102B50002FBF409140045091410460914204709114
:102B60004304841B950BA60BB70B81339547A10536
:102B7000B10560F060E087E00E94510810924004C7
:102B8000109241041092420410924304F9E06F162F
:102B900071040CF46FC1EE24E394F12C0E94CF0A6F
:102BA0008F3F89F1882319F08E3F89F52CC0609101
:102BB0003E0470913F04072E000C880B990B0E9475
:102BC0006C18209107053091080540910905509136
:102BD0000A050E94E3190E94C11A9B0170933F04E9
:102BE00060933E0465E0E616F10489F4C901B7017B
:102BF0000E94211B709349046093480410923F0483
:102C000010923E0404C010924904109248047FEFD1
:102C1000E71AF70A6AEA70E080E090E00E94D408C0
:102C200086E0E816F10409F0B9CF64E573E084E1C9
:102C300095E00E94C80E80914804909149040E943A
:102C4000980D8AE194E00E94BC0A10923A04109216
:102C50003B0410923C0410923D04E12CF12C609056
:102C60003A0470903B0480903C0490903D048EE0C8
:102C70000E94BD08BC01990F880B990B0E946C182B
:102C800020E030E040EA50E40E94CB1820E030E041
:102C900048EC52E40E94CB1820E030E040E85AE3D0
:102CA0000E94CB189B01AC01C401B3010E94E3193F
:102CB0003B014C0160933A0470933B0480933C04C5
:102CC00090933D04B7010F2C000C880B990B0E94C8
:102CD0006C189B01AC01C401B3010E944F1A6093B0
:102CE0004A0470934B0480934C0490934D049FEFDF
:102CF000E91AF90AA9EEEA16A3E0FA0609F0AFCF3D
:102D000067E673E084E195E00E94C80E60914A0492
:102D100070914B0480914C0490914D040E94B30E2D
:102D20008AE194E00E94BC0A1092360410923704A3
:102D300010923804109239044BE0E42EF12C80E11B
:102D40000E94BD089093350480933404BC01990F10
:102D5000880B990B0E946C183B014C019B01AC0144
:102D60006091360470913704809138049091390451
:102D70000E94E319609336047093370480933804FB
:102D8000909339046AE070E080E090E00E94D408FB
:102D9000B1E0EB1AF10899F62AE038E240EA5BE389
:102DA000C401B3010E94CB186B017C016093300415
:102DB00070933104809332049093330420E038E917
:102DC00047E357E40E944F1A3B014C0160932C04E7
:102DD00070932D0480932E0490932F04A7019601E5
:102DE00060E070E080EA90E40E94E219A40193019F
:102DF0000E944F1A9B01AC01609336047093370414
:102E0000809338049093390460E070E080E89FE399
:102E10000E944F1A2AE037ED4FE753E40E94CB1887
:102E200020E030E04AE754E40E94CB186093440469
:102E30007093450480934604909347046AE773E0D7
:102E400084E195E00E94C80E6091440470914504AD
:102E500080914604909147040E94B30E8AE194E069
:102E60000E94BC0A8DE893E00E94BC0A8AE194E0CB
:102E70000E94BC0A88EF91E0E0E0F1E0DF019C01F4
:102E80001D9221503040E1F71092D0051092CF05ED
:102E90001092D2051092D1050E94F00385CA61E01C
:102EA0008AE00E94510861E08AE00E9481088CB5A6
:102EB00080618CBD8CB580648CBD61E08DE00E942A
:102EC000810861E08BE00E9481088CB58C7F8CBD0D
:102ED0008DB58E7F8DBD8CB5837F8CBD8CB58F7D80
:102EE0008CBDFEC861E087E00E9451082FB7F894BE
:102EF0008091280490912904A0912A04B0912B0478
:102F00002FBF8093400490934104A0934204B09358
:102F1000430414CE109217051092160588EE93E024
:102F2000A0E0B0E08093180590931905A0931A05CE
:102F3000B0931B0522E033E0309315052093140570
:102F400025EC30E0309321052093200524EC30E07F
:102F5000309323052093220520EC30E030932505A3
:102F60002093240521EC30E030932705209326059B
:102F700022EC30E0309329052093280526EC30E040
:102F800030932B0520932A0510922D0510922E05C3
:102F900010922F05109230051092B4051092B305CF
:102FA0008093B5059093B605A093B705B093B80587
:102FB00084E193E09093B2058093B1051092C60529
:102FC0001092C50524E530E03093C8052093C7056D
:102FD00080E390E09093CA058093C9053093CC05B7
:102FE0002093CB059093CE058093CD051092D80504
:102FF0001092D0051092CF051092D2051092D105F3
:1030000081E08093D7052FEF3FEF3093D6052093D3
:10301000D5053093D4052093D3058093D90586E256
:1030200093E09093C4058093C3058BE08093DA0509
:103030008DE08093DB0588E08093DC0589E0809358
:10304000DD058AE08093DE0580E18093C2058CE196
:103050008093C10586E08093C00520E081E697E972
:10306000E3E9FEEF31E0422F437009F030E061E028
:10307000620F432F50E0DA01A359BE4F8A179B0716
:1030800038F09F01241B350B820F931F262FEACFA8
:103090002093BD0521E0E22FF0E0E552FA4FE491E4
:1030A000332319F0223009F4EF5FF0E041E0420FE2
:1030B0008E179F0720F08E1B9F0B242FECCF2093A1
:1030C000BE058F5F8093BF0508950E94A71808F47E
:1030D00081E00895E89409C097FB3EF490958095AF
:1030E000709561957F4F8F4F9F4F9923A9F0F92FCE
:1030F00096E9BB279395F695879577956795B7954C
:10310000F111F8CFFAF4BB0F11F460FF1BC06F5F31
:103110007F4F8F4F9F4F16C0882311F096E911C043
:10312000772321F09EE8872F762F05C0662371F064
:1031300096E8862F70E060E02AF09A95660F771F78
:10314000881FDAF7880F9695879597F90895990F54
:103150000008550FAA0BE0E8FEEF16161706E80761
:10316000F907C0F012161306E407F50798F0621B82
:10317000730B840B950B39F40A2661F0232B242B57
:10318000252B21F408950A2609F4A140A6958FEF76
:10319000811D811D08950E94DE180C944F190E9414
:1031A000411938F00E94481920F0952311F00C9431
:1031B00038190C943E1911240C9483190E9460193B
:1031C00070F3959FC1F3950F50E0551F629FF0017A
:1031D000729FBB27F00DB11D639FAA27F00DB11D93
:1031E000AA1F649F6627B00DA11D661F829F22271C
:1031F000B00DA11D621F739FB00DA11D621F839FA3
:10320000A00D611D221F749F3327A00D611D231F78
:10321000849F600D211D822F762F6A2F11249F57C6
:1032200050409AF0F1F088234AF0EE0FFF1FBB1FC9
:10323000661F771F881F91505040A9F79E3F510588
:1032400080F00C9438190C9483195F3FE4F3983E96
:10325000D4F3869577956795B795F795E7959F5F32
:10326000C1F7FE2B880F911D9695879597F90895C4
:1032700097F99F6780E870E060E008959FEF80EC29
:10328000089500240A9416161706180609060895CC
:1032900000240A9412161306140605060895092E32
:1032A0000394000C11F4882352F0BB0F40F4BF2BA1
:1032B00011F460FF04C06F5F7F4F8F4F9F4F0895E1
:1032C00057FD9058440F551F59F05F3F71F04795D7
:1032D000880F97FB991F61F09F3F79F087950895BC
:1032E000121613061406551FF2CF4695F1DF08C0DB
:1032F000161617061806991FF1CF869571056105F8
:1033000008940895E894BB2766277727CB0197F99F
:1033100008952F923F924F925F926F927F928F9279
:103320009F92AF92BF92CF92DF92EF92FF920F9354
:103330001F93CF93DF93CDB7DEB7CA1BDB0B0FB65E
:10334000F894DEBF0FBECDBF09942A88398848881B
:103350005F846E847D848C849B84AA84B984C884B1
:10336000DF80EE80FD800C811B81AA81B981CE0FA8
:10337000D11D0FB6F894DEBF0FBECDBFED0108958D
:10338000A1E21A2EAA1BBB1BFD010DC0AA1FBB1F69
:10339000EE1FFF1FA217B307E407F50720F0A21BDB
:1033A000B30BE40BF50B661F771F881F991F1A9448
:1033B00069F760957095809590959B01AC01BD0172
:1033C000CF0108955058BB27AA270E94FA190C94E0
:1033D0004F190E94411938F00E94481920F039F421
:1033E0009F3F19F426F40C943E190EF4E095E7FB88
:1033F0000C943819E92F0E94601958F3BA17620724
:1034000073078407950720F079F4A6F50C948219C8
:103410000EF4E0950B2EBA2FA02D0B01B9019001EF
:103420000C01CA01A0011124FF27591B99F0593F33
:1034300050F4503E68F11A16F040A22F232F342F7B
:103440004427585FF3CF469537952795A795F040C9
:103450005395C9F77EF41F16BA0B620B730B840BDE
:10346000BAF09150A1F0FF0FBB1F661F771F881F96
:10347000C2F70EC0BA0F621F731F841F48F48795EE
:1034800077956795B795F7959E3F08F0B0CF9395E0
:10349000880F08F09927EE0F9795879508950E9459
:1034A000631A0C944F190E94481958F00E94411950
:1034B00040F029F45F3F29F00C94381951110C9415
:1034C00083190C943E190E94601968F39923B1F393
:1034D000552391F3951B550BBB27AA27621773073A
:1034E000840738F09F5F5F4F220F331F441FAA1FCE
:1034F000A9F335D00E2E3AF0E0E832D0915050408A
:10350000E695001CCAF72BD0FE2F29D0660F771F37
:10351000881FBB1F261737074807AB07B0E809F01D
:10352000BB0B802DBF01FF2793585F4F3AF09E3FA2
:10353000510578F00C9438190C9483195F3FE4F32B
:10354000983ED4F3869577956795B795F7959F5FE5
:10355000C9F7880F911D9695879597F90895E1E031
:10356000660F771F881FBB1F621773078407BA0790
:1035700020F0621B730B840BBA0BEE1F88F7E095EB
:1035800008950E94C81A6894B1110C948319089583
:103590000E94681988F09F5798F0B92F9927B75162
:1035A000B0F0E1F0660F771F881F991F1AF0BA95E7
:1035B000C9F714C0B13091F00E948219B1E00895AA
:1035C0000C948219672F782F8827B85F39F0B93F9C
:1035D000CCF3869577956795B395D9F73EF490959A
:1035E0008095709561957F4F8F4F9F4F08950E94F2
:1035F000A71808F48FEF08950E94A718880B990B5D
:103600000895991B79E004C0991F961708F0961B3E
:10361000881F7A95C9F780950895AA1BBB1B51E1B5
:1036200007C0AA1FBB1FA617B70710F0A61BB70B32
:10363000881F991F5A95A9F780959095BC01CD01D7
:10364000089597FB072E16F4009407D077FD09D054
:103650000E940D1B07FC05D03EF4909581959F4F6D
:103660000895709561957F4F0895EE0FFF1F0590A7
:10367000F491E02D0994CF93DF938230910510F4FB
:1036800082E090E0E091E705F091E80520E030E08D
:10369000C0E0D0E0309711F14081518148175907BF
:1036A000C0F04817590761F482819381209719F07F
:1036B0009B838A832BC09093E8058093E70526C0FF
:1036C0002115310519F04217530718F49A01BE016C
:1036D000DF01EF010280F381E02DDCCF2115310500
:1036E00009F1281B390B2430310590F412968D9185
:1036F0009C9113976115710521F0FB0193838283DF
:1037000004C09093E8058093E705FD01329644C01C
:10371000FD01E20FF31F81939193225031092D9304
:103720003C933AC02091E5053091E605232B41F406
:103730002091FA023091FB023093E6052093E505D3
:103740002091F8023091F9022115310541F42DB78D
:103750003EB74091FC025091FD02241B350BE091D5
:10376000E505F091E605E217F307A0F42E1B3F0BE9
:103770002817390778F0AC014E5F5F4F24173507E3
:1037800048F04E0F5F1F5093E6054093E505819387
:10379000919302C0E0E0F0E0CF01DF91CF91089576
:1037A0000F931F93CF93DF93009709F48CC0FC0114
:1037B0003297138212820091E7051091E8050115F6
:1037C000110581F420813181820F931F2091E5053D
:1037D0003091E6052817390779F5F093E605E0936F
:1037E000E50571C0D80140E050E0AE17BF0750F4C6
:1037F00012962D913C911397AD012115310509F1D8
:10380000D901F3CF9D01DA01338322836081718175
:10381000860F971F8217930769F4EC01288139817D
:10382000260F371F2E5F3F4F318320838A819B8174
:1038300093838283452B29F4F093E805E093E70511
:1038400042C01396FC93EE931297ED014991599162
:103850009E01240F351FE217F30771F480819181D7
:10386000840F951F029611969C938E93828193816B
:1038700013969C938E931297E0E0F0E0D801129695
:103880008D919C911397009719F0F8018C01F6CF58
:103890008D919C9198012E5F3F4F820F931F209135
:1038A000E5053091E6052817390769F4309729F4C2
:1038B0001092E8051092E70502C01382128210935D
:1038C000E6050093E505DF91CF911F910F910895D3
:1038D000A0E0B0E0EEE6FCE10C948D19EC0100975D
:1038E00021F4CB010E943B1BB8C0FC01E60FF71F7F
:1038F0009C0122503109E217F30708F4ACC0D9014A
:103900000D911C91119706171707B0F0053011059E
:1039100008F49FC0C80104978617970708F499C058
:1039200002501109061B170B019311936D937C93A1
:10393000CF010E94D01B8DC05B01A01AB10A4C01BF
:10394000800E911EA091E705B091E80540E050E09F
:10395000E12CF12C109709F44AC0A815B905D1F54E
:103960006D907C901197630182E0C80ED11CCA143F
:10397000DB0480F1A3014A195B096A0182E0C80EE9
:10398000D11C1296BC9012971396AC91B5E0CB1651
:10399000D10440F0B282A38351834083D9016D9357
:1039A0007C930AC00E5F1F4FC301800F911FF90166
:1039B00091838083EB2DFA2FE114F10431F0D701CC
:1039C0001396FC93EE93129744C0F093E805E093AE
:1039D000E7053FC08D919C9111974817590708F44E
:1039E000AC017D0112960D90BC91A02DB3CF8091BA
:1039F000E5059091E60588159905E1F44617570706
:103A0000C8F48091F8029091F902009741F48DB7C3
:103A10009EB74091FC025091FD02841B950BE81764
:103A2000F907C8F4F093E605E093E505F901718321
:103A300060830FC0CB010E943B1B7C01009759F0B3
:103A4000A801BE010E94371DCE010E94D01BC701F4
:103A500004C0CE0102C080E090E0CDB7DEB7EEE05A
:103A60000C94A91981E090E0F8940C94471DFB0197
:103A7000DC0102C001900D9241505040D8F70895EA
:103A8000FB01DC0101900D920020E1F70895F8940C
:023A9000FFCF66
:103A92000000000000000000000000000000000024
:103AA2000000000000000000000000000000000014
:103AB200000000000000C0E0F0F8FCFCFEFFFCE0AB
:103AC20000000000000000000000000000000000F4
:103AD20000000000000000000000000000000000E4
:103AE20000000000000000000000000000000000D4
:103AF2000000000000F8F8F8F8F8F8F8F8F8F8F81C
:103B0200F8F0F0E0E0C080C0FCFFFFFFFF7F3F7FE6
:103B1200FFFFFFFFFF0000000000000000000000A8
:103B22000000000000000000000000000000000093
:103B32000000000000000000000000000000000083
:103B4200000000000000000000000F1F3F7FFFFF89
:103B5200FFFFFFFFFFFFE7C7C7878F9F9FFFFFFFA3
:103B6200C1C0E0FCFFFFFFFFFFFCFCFCFCFEFEFE11
:103B7200FCFCF8F8F0E0C0C000000000000000000B
:103B82000000000000000000000000000000000033
:103B92000000000000000000000000000000000023
:103BA2000080C0E0F1FBFFFFFFFFFF7F1F0F0F87C9
:103BB200E7FFFFFF1F1F3FF9F8F8F8F8F8F8FDFFDD
:103BC200FFFFFFFFFFFFFFFF7F3F0F070100000026
:103BD20000000000000000000000000000000000E3
:103BE20000000000000000000000000000000000D3
:103BF200000000F0FEFFFFFFFFFFFFFFFFFFFFFEE1
:103C02007E3F3F0F1FFFFFFFFCF0E0F1FFFFFFFFD2
:103C1200FFFCF001010101010101010000000000AF
:103C22000000000000000000000000000000000092
:103C32000000000000000000000000000000000082
:103C42000000000000000003030303030303030159
:103C520001010100000000000000030F1F3F7F7FF1
:103C6200FFFFFFFF7F7F1F03000000000000000036
:103C72000000000000000000000000000000000042
:103C820000000000000000000000E90580000000C4
:103C920000008703CA0E1F03CE0350032E03420304
:103CA2000000000092045504CB0729044D04390496
:103CB2002A04000000002805CA0ECB07CA07BB046D
:103CC2002007BA06A406D1066F06510627055254EC
:103CD20043206E616F20656E636F6E747261646FF4
:103CE2002E2E2E004C65697475726120646F20441B
:103CF200483131203D20004C656974757261206441
:103D02006F204C4D3335203D20004C65697475722F
:103D12006120646F204C445220203D20002D202D34
:103D2200202D202D202D202D202D202D202D202D29
:103D3200202D202D202D202D003A003000446F6DC3
:103D4200696E676F00536567756E646100546572D2
:103D5200636100517561727461005175696E7461BD
:103D62000053657874610053616261646F004A4177
:103D72004E00464556004D415200414252004D41CF
:103D820049004A554E004A554C0041474F005345A1
:103D920054004F5554004E4F560044455A004300BC
:103DA200480025004C7578000D0A006E616E0069AE
:083DB2006E66006F76660000EA
:00000001FF
