:100000000C942A000C9447000C9447000C94470071
:100010000C9447000C9447000C9447000C94470044
:100020000C9447000C9447000C9447000C94470034
:100030000C9447000C9447000C9447000C94470024
:100040000C9447000C9447000C9447000C94470014
:100050000C94470011241FBECFE5D4E0DEBFCDBF16
:1000600010E0A0E6B0E0ECECF0E002C005900D92EC
:10007000A036B107D9F710E0A0E6B0E001C01D92AC
:10008000A036B107E1F70E944D000C9464000C9477
:10009000000089E683BFBB9A089589E683BFBB9AB7
:1000A00020E040E25EE405C02CBFCA010197F1F7F1
:1000B0002F5F2F3FC9F72CBFCA010197F1F72150DD
:0C00C0002130C9F720E0F0CFF894FFCF0A
:00000001FF
