:100000000C942A000C9447000C9447000C94470071
:100010000C9447000C9447000C9447000C94470044
:100020000C9447000C9447000C9447000C94470034
:100030000C9447000C9447000C9447000C94470024
:100040000C9447000C9447000C9447000C94470014
:100050000C94470011241FBECFE5D4E0DEBFCDBF16
:1000600010E0A0E6B0E0EAEFF0E002C005900D92EB
:10007000A437B107D9F710E0A4E7B0E001C01D92A2
:10008000A437B107E1F70E9449000C947B000C945F
:100090000000DF93CF93CDB7DEB764970FB6F89427
:1000A000DEBF0FBECDBF8FEF84BBDE011196E0E651
:1000B000F0E084E101900D928150E1F720E030E022
:1000C000BE016F5F7F4F48EC50E0F901EE0FFF1F5C
:1000D000E60FF71F808185BB80E593ECFA0131972D
:1000E000F1F70197D9F72F5F3F4F2A3031056CF3B5
:0A00F00020E030E0EACFF894FFCFE3
:1000FA00F900A400B000990092000200F800800004
:04010A009000C000A1
:00000001FF
