:100000000C942A000C9447000C9447000C94470071
:100010000C9447000C9447000C9447000C94470044
:100020000C9447000C9447000C9447000C94470034
:100030000C9447000C9447000C9447000C94470024
:100040000C9447000C9447000C9447000C94470014
:100050000C94470011241FBECFE5D4E0DEBFCDBF16
:1000600010E0A0E6B0E0E2E7F1E002C005900D92FA
:10007000A036B107D9F710E0A0E6B0E001C01D92AC
:10008000A036B107E1F70E9463000C94B7000C940E
:10009000000083E389B910BC88E18AB98EE880BD8D
:1000A00008955D9BFECF8CB90895FC0104C05D9B53
:1000B000FECF8CB9319680818823C9F708955F9B64
:1000C000FECF8CB108951F938FEF84BB83E389B972
:1000D00010BC88E18AB98EE880BD80E29EE4019779
:1000E000F1F760E27EE448EC50E012E0B8E0A5E011
:1000F0003AE05F9BFECF2CB1CB010197F1F726349C
:1001000049F435BB80ED97E0FA013197F1F701979B
:10011000D9F7EFCF223449F4A5BB80ED97E0FA017F
:100120003197F1F70197D9F7E4CF2C3449F4B5BBF7
:1001300080ED97E0FA013197F1F70197D9F7D9CF20
:10014000223549F415BB80ED97E0FA013197F1F7BC
:100150000197D9F7CECF233509F0CBCF15BA80ED73
:1001600097E0FA013197F1F70197D9F7C2CFF894E8
:02017000FFCFBF
:00000001FF
