:100000000C942A000C9447000C9447000C94470071
:100010000C9447000C9447000C9447000C94470044
:100020000C9447000C9447000C9447000C94470034
:100030000C9447000C9447000C9447000C94470024
:100040000C9447000C9447000C9447000C94470014
:100050000C94470011241FBECFE5D4E0DEBFCDBF16
:1000600010E0A0E6B0E0EEEBF1E002C005900D92EA
:10007000A036B107D9F710E0A0E6B0E001C01D92AC
:10008000A036B107E1F70E94AF000C94DD000C949C
:10009000000011B887E080B986B7846086BF0895F4
:1000A00084EA86BF06B607FEFDCF089584E986BFC1
:1000B000089583B984E886BF06B607FEFDCF08958C
:1000C000FC0184E886BF06B607FEFDCF83B18083BE
:1000D0000895982F84EA86BF06B607FEFDCF88EA0A
:1000E00083B984E886BF06B607FEFDCF63B984E80E
:1000F00086BF06B607FEFDCF93B984E886BF06B675
:1001000007FEFDCF84E986BF0895982FFB0184EA9E
:1001100086BF06B607FEFDCF88EA83B984E886BFAE
:1001200006B607FEFDCF93B984E886BF06B607FE84
:10013000FDCF84EA86BF06B607FEFDCF89EA83B904
:1001400084E886BF06B607FEFDCF84E886BF06B604
:1001500007FEFDCF83B1808384E986BF0895DF92D7
:10016000EF92FF920F931F93DF93CF930F92CDB730
:10017000DEB78FEF81BB11B887E080B986B78460A6
:1001800086BF98ECE92EF12C8E010F5F1F4F80E4A3
:10019000D82E60E080EE0E94690080E197E2F701CE
:1001A0003197F1F70197D9F7B80180E00E948500F7
:0E01B0008981803E71F7D2BAECCFF894FFCF70
:00000001FF
