:100000000C9446000C9465000C9465000C946500FB
:100010000C9465000C9465000C9465000C946500CC
:100020000C9465000C9465000C9465000C946500BC
:100030000C9465000C9465000C9465000C946500AC
:100040000C9465000C9465000C9465000C9465009C
:100050000C9465000C9465000C9465000C9465008C
:100060000C9465000C9465000C9465000C9465007C
:100070000C9465000C9465000C9465000C9465006C
:100080000C9465000C9465000C94650011241FBE4F
:10009000CFEFD0E1DEBFCDBF11E0A0E0B1E0E8E4FA
:1000A000F3E000E00BBF02C007900D92AC30B10747
:1000B000D9F711E0ACE0B1E001C01D92AC30B1075E
:1000C000E1F70E94F2000C94A2010C940000282F8A
:1000D000207F25BBA898A998AA9A20ED37E0F901BE
:1000E0003197F1F7AA98F9013197F1F790E044E0E0
:1000F000880F991F4A95E1F785BBA898A998AA9AF5
:10010000C9010197F1F7AA98C9010197F1F708957C
:1001100082E090E00E94670088E290E00E94670021
:1001200086E090E00E9467008CE090E00E9467000B
:1001300081E090E00E9467000895282F207F25BB72
:10014000A89AA998AA9A20ED37E0F9013197F1F71A
:10015000AA98F9013197F1F790E054E0880F991FC0
:100160005A95E1F785BBA89AA998AA9AC90101975F
:10017000F1F7AA98C9010197F1F70895CF93DF939A
:10018000EC0103C00E949D00219688818823D1F74D
:10019000DF91CF910895CF93DF93EC0184E00E942B
:1001A00067000EC0CE016AE070E00E948E01805DA3
:1001B0000E949D00CE016AE070E00E948E01EB017A
:1001C000209781F786E00E946700DF91CF91089524
:1001D000806487B987ED86B9349BFECF24B135B1F1
:1001E000C9010895EF92FF920F931F93CF93DF936E
:1001F0001ABA8FEF84BB0E94880088EE93E028EC47
:1002000030E0F9013197F1F70197D9F770E4E72E63
:1002100067EDF62E08EC10E0E7B8F6B8349BFECF99
:10022000C4B1D5B184EF91E0F8013197F1F70197AE
:10023000D9F785E80E94670080E091E00E94BE0047
:1002400080ED97E0F8013197F1F70197D9F786EC47
:100250000E94670088E091E00E94BE0080ED97E078
:10026000F8013197F1F70197D9F784EC0E94670004
:10027000CE010E94CB0088EE93E0F8013197F1F7B0
:100280000197D9F783E0C63BD8077CF089EC0E9440
:10029000670081E090E00E94CB0088EE93E0F801D7
:1002A0003197F1F70197D9F7B7CF82E0CC3BD80768
:1002B0007CF089EC0E94670082E090E00E94CB0015
:1002C00088EE93E0F8013197F1F70197D9F7A4CFC1
:1002D00081E0C43FD8077CF089EC0E94670083E08E
:1002E00090E00E94CB0088EE93E0F8013197F1F79F
:1002F0000197D9F791CFCC52D1400CF48DCF89EC36
:100300000E94670084E090E00E94CB0088EE93E0BA
:10031000F8013197F1F70197D9F77ECFAA1BBB1BE4
:1003200051E107C0AA1FBB1FA617B70710F0A61BF5
:10033000B70B881F991F5A95A9F780959095BC0116
:08034000CD010895F894FFCFF0
:0C03480057454C434F4D4500434D3A00D3
:00000001FF
