:100000000C942A000C9447000C9447000C94470071
:100010000C9447000C9447000C9447000C94470044
:100020000C9447000C9447000C9447000C94470034
:100030000C9447000C9447000C9447000C94470024
:100040000C9447000C9447000C9447000C94470014
:100050000C94470011241FBECFE5D4E0DEBFCDBF16
:1000600010E0A0E6B0E0E6E9F1E002C005900D92F4
:10007000A036B107D9F710E0A0E6B0E001C01D92AC
:10008000A036B107E1F70E9472000C94C9000C94ED
:1000900000009B01AC01643F71058105910528F4C6
:1000A00024EF30E040E050E00CC0253284EF380708
:1000B00080E0480780E0580720F024E234EF40E079
:1000C00050E064E274EF80E090E00E94A7002150CD
:1000D00023BD08958F9A0E9449008AE185BD089545
:1000E00015BC0895EF92FF920F931F93CF93DF9368
:1000F00064EF70E080E090E00E946A0094EFE92EE7
:10010000F12C012D112DC9E1D0E088E99AE3FE011F
:100110003197F1F70197D9F784EF90E0A0E0B0E0D4
:10012000E80EF91E0A1F1B1F91E2E9169EE4F9066C
:1001300090E0090790E0190728F084EFE82EF12CF1
:10014000012D112DC801B7010E944900DECFA1E2A7
:100150001A2EAA1BBB1BFD010DC0AA1FBB1FEE1F41
:10016000FF1FA217B307E407F50720F0A21BB30B8C
:10017000E40BF50B661F771F881F991F1A9469F708
:1001800060957095809590959B01AC01BD01CF0164
:060190000895F894FFCF72
:00000001FF
