:100000000C942A000C9447000C9447000C94470071
:100010000C9447000C9447000C9447000C94470044
:100020000C9447000C9447000C9447000C94470034
:100030000C9447000C9447000C9447000C94470024
:100040000C9447000C9447000C9447000C94470014
:100050000C94470011241FBECFE5D4E0DEBFCDBF16
:1000600010E0A0E6B0E0E8E8F1E002C005900D92F3
:10007000A036B107D9F710E0A0E6B0E001C01D92AC
:10008000A036B107E1F70E9449000C94C2000C941D
:10009000000011BA8FEF87BBF5E030EAE0E54AE0F7
:1000A00079E061E058E080B38370833049F4F8BBB5
:1000B000832F8A95F1F718BA8E2F8A95F1F7F3CF2F
:1000C000809B1FC080E090E048BB232F2A95F1F76A
:1000D00018BA232F2A95F1F7019627E18137920765
:1000E00099F780E090E058BB232F2A95F1F718BAD2
:1000F000232F2A95F1F701962FE18134920799F782
:10010000D2CF819B1FC080E090E048BB232F2A956F
:10011000F1F718BA232F2A95F1F7019627E18137D5
:10012000920799F780E090E068BB232F2A95F1F7BA
:1001300018BA232F2A95F1F701962FE181349207FF
:1001400099F7B1CF80B380E090E048BB232F2A9588
:10015000F1F718BA232F2A95F1F7019627E1813795
:10016000920799F780E090E078BB232F2A95F1F76A
:1001700018BA232F2A95F1F701962FE181349207BF
:0801800099F791CFF894FFCF2D
:00000001FF
