:100000000C942A000C9447000C9447000C94470071
:100010000C9447000C9447000C9447000C94470044
:100020000C9447000C9447000C9447000C94470034
:100030000C9447000C9447000C9447000C94470024
:100040000C9447000C9447000C9447000C94470014
:100050000C94470011241FBECFE5D4E0DEBFCDBF16
:1000600010E0A0E6B0E0E4E1F1E002C005900D92FE
:10007000A036B107D9F710E0A0E6B0E001C01D92AC
:10008000A036B107E1F70E9463000C9488000C943D
:10009000000083E389B910BC88E18AB98EE880BD8D
:1000A00008955D9BFECF8CB90895FC0104C05D9B53
:1000B000FECF8CB9319680818823C9F708955F9B64
:1000C000FECF8CB108958FEF84BB83E389B910BC58
:1000D00088E18AB98EE880BD80E29EE40197F1F75D
:1000E00031E02AE095E05F9BFECF8CB1813311F4C3
:1000F00095BBF9CF823311F425BBF5CF833311F4CF
:1001000035BBF1CF843311F0853369F715BAEBCFE6
:04011000F894FFCF91
:00000001FF
