:100000000C942A000C9447000C9447000C94470071
:100010000C9447000C9447000C9447000C94470044
:100020000C9447000C9447000C9447000C94470034
:100030000C9447000C9447000C9447000C94470024
:100040000C9447000C9447000C9447000C94470014
:100050000C94470011241FBECFE5D4E0DEBFCDBF16
:1000600010E0A0E6B0E0E0E7F3E002C005900D92FA
:10007000A036B107D9F710E0A0E6B0E001C01D92AC
:10008000A036B107E1F70E9400010C94B6010C9470
:100090000000D09AD19AD29AD398D498D598D6986D
:1000A000DB9ADC9ADD9ADE9A0895D898D99ADA9A82
:1000B00084EF91E028EC30E0F9013197F1F70197F6
:1000C000D9F789B38877803729F489B3887780375F
:1000D000E1F392C089B38877883639F489B3887799
:1000E0008836E1F322E030E089C089B3887788352B
:1000F00039F489B388778835E1F323E030E07EC0B6
:1001000089B38877883339F489B388778833E1F302
:1001100024E030E073C0D89ADA98DB9A84EF91E05B
:1001200028EC30E0F9013197F1F70197D9F789B35D
:100130008877803739F489B388778037E1F325E011
:1001400030E05CC089B38877883639F489B3887722
:100150008836E1F326E030E051C089B388778835EE
:1001600039F489B388778835E1F327E030E046C079
:1001700089B38877883339F489B388778833E1F392
:1001800028E030E03BC0D89AD99ADA9884EF91E021
:1001900028EC30E0F9013197F1F70197D9F789B3ED
:1001A0008877803739F489B388778037E1F329E09D
:1001B00030E024C089B38877883639F489B38877EA
:1001C0008836E1F32AE030E019C089B388778835B2
:1001D00039F489B388778835E1F32BE030E00EC03D
:1001E00089B38877883339F489B388778833E1F322
:1001F0002CE030E003C0089521E030E0C90108950B
:100200008F929F92AF92BF92CF92DF92EF92FF9226
:100210000F931F93CF93DF938FEF84BB0E9449000E
:1002200009EFC8ECD0E014EA70EC872E60E9962E56
:1002300050E8B52E48EFA42E32E0C32E22E9E22E7C
:1002400099E9D92E80EBF82E0E9455008130910556
:1002500049F405BB88EE93E0FE013197F1F7019771
:10026000D9F7F2CF8230910549F415BB88EE93E0BF
:10027000FE013197F1F70197D9F7E6CF8330910569
:1002800049F4F5BA88EE93E0FE013197F1F7019752
:10029000D9F7DACF8430910549F4D5BA88EE93E0E6
:1002A000FE013197F1F70197D9F7CECF853091054F
:1002B00049F4E5BA88EE93E0FE013197F1F7019732
:1002C000D9F7C2CF8630910549F4C5BA88EE93E0DC
:1002D000FE013197F1F70197D9F7B6CF8730910535
:1002E00049F4A5BA88EE93E0FE013197F1F7019742
:1002F000D9F7AACF8830910549F4B5BA88EE93E0D2
:10030000FE013197F1F70197D9F79ECF893091051A
:1003100049F495BA88EE93E0FE013197F1F7019721
:10032000D9F792CF8A30910549F485BA88EE93E0E7
:10033000FE013197F1F70197D9F786CF8B30910500
:1003400049F405BB88EE93E0FE013197F1F7019780
:10035000D9F77ACF0C9709F077CF15BB88EE93E0E9
:10036000FE013197F1F70197D9F76ECFF894FFCFDF
:00000001FF
