:100000000C942A000C9447000C9447000C94470071
:100010000C9447000C9447000C9447000C94470044
:100020000C9447000C9447000C9447000C94470034
:100030000C9447000C9447000C9447000C94470024
:100040000C9447000C9447000C9447000C94470014
:100050000C94470011241FBECFE5D4E0DEBFCDBF16
:1000600010E0A0E6B0E0E8EEF3E002C005900D92EB
:10007000A836B107D9F710E0A8E6B0E001C01D929C
:10008000A836B107E1F70E9481010C94F2010C94AB
:100090000000282F207F25BBA898A998AA9A20EDB8
:1000A00037E0F9013197F1F7AA98F9013197F1F7A3
:1000B00090E044E0880F991F4A95E1F785BBA89826
:1000C000A998AA9AC9010197F1F7AA98C9010197BD
:1000D000F1F7089582E090E00E94490088E290E004
:1000E0000E94490086E090E00E9449008CE090E088
:1000F0000E94490081E090E00E9449000895282F65
:10010000207F25BBA89AA998AA9A20ED37E0F9018B
:100110003197F1F7AA98F9013197F1F790E054E09F
:10012000880F991F5A95E1F785BBA89AA998AA9AB2
:10013000C9010197F1F7AA98C9010197F1F708954C
:10014000CF93DF93EC0103C00E947F00219688814A
:100150008823D1F7DF91CF910895CF93DF93EC01FE
:1001600084E00E9449000EC0CE016AE070E00E9467
:10017000DE01805D0E947F00CE016AE070E00E9497
:10018000DE01EB01209781F786E00E944900DF91B4
:10019000CF910895D09AD19AD29AD398D498D598DD
:1001A000D698DB9ADC9ADD9ADE9A0895D898D99A87
:1001B000DA9A84EF91E028EC30E0F9013197F1F719
:1001C0000197D9F789B38877803729F489B388777D
:1001D0008037E1F392C089B38877883639F489B3E0
:1001E00088778836E1F322E030E089C089B38877E8
:1001F000883539F489B388778835E1F323E030E036
:100200007EC089B38877883339F489B38877883397
:10021000E1F324E030E073C0D89ADA98DB9A84EFF7
:1002200091E028EC30E0F9013197F1F70197D9F727
:1002300089B38877803739F489B388778037E1F3D9
:1002400025E030E05CC089B38877883639F489B31B
:1002500088778836E1F326E030E051C089B38877AB
:10026000883539F489B388778835E1F327E030E0C1
:1002700046C089B38877883339F489B3887788335F
:10028000E1F328E030E03BC0D89AD99ADA9884EFBD
:1002900091E028EC30E0F9013197F1F70197D9F7B7
:1002A00089B38877803739F489B388778037E1F369
:1002B00029E030E024C089B38877883639F489B3DF
:1002C00088778836E1F32AE030E019C089B388776F
:1002D000883539F489B388778835E1F32BE030E04D
:1002E0000EC089B38877883339F489B38877883327
:1002F000E1F32CE030E003C0089521E030E0C901D3
:1003000008950F931F93CF93DF938FEF84BB0E94C9
:100310006A0088EE93E028EC30E0F9013197F1F7BC
:100320000197D9F70E94CA0008EC10E00E94D6009D
:10033000EC0185E80E94490080E690E00E94A00060
:1003400088EE93E0F8013197F1F70197D9F7C130C2
:10035000D105C9F485EC0E94490081E090E00E943B
:10036000AD0088EE93E0F8013197F1F70197D9F7E6
:1003700081E00E94490088EE93E0F8013197F1F79F
:100380000197D9F7D3CF229789F685EC0E944900CF
:1003900082E090E00E94AD0088EE93E0F801319792
:1003A000F1F70197D9F781E00E94490088EE93E0C8
:1003B000F8013197F1F70197D9F7B8CFAA1BBB1B0A
:1003C00051E107C0AA1FBB1FA617B70710F0A61B55
:1003D000B70B881F991F5A95A9F780959095BC0176
:0803E000CD010895F894FFCF50
:0803E80057454C434F4D450001
:00000001FF
