:100000000C942A000C9447000C9447000C94470071
:100010000C9447000C9447000C9447000C94470044
:100020000C9447000C9447000C9447000C94470034
:100030000C9447000C9447000C9447000C94470024
:100040000C9447000C9447000C9447000C94470014
:100050000C94470011241FBECFE5D4E0DEBFCDBF16
:1000600010E0A0E6B0E0E4E1F1E002C005900D92FE
:10007000A036B107D9F710E0A0E6B0E001C01D92AC
:10008000A036B107E1F70E9449000C9488000C9457
:10009000000011BA8FEF87BB65E030EA51E044E021
:1000A00080B38570853049F468BB832F8A95F1F75A
:1000B00018BA832F8A95F1F7F3CF809B10C080E0A8
:1000C00090E048BB232F2A95F1F718BA232F2A95E1
:1000D000F1F7019627E18137920799F7E1CF829BEB
:1000E00010C080E090E058BB232F2A95F1F718BA92
:1000F000232F2A95F1F7019627E18137920799F787
:10010000CFCF80B38770873009F0CACF18BAC8CF75
:04011000F894FFCF91
:00000001FF
