:100000000C942A000C9447000C9447000C94470071
:100010000C9447000C9447000C9447000C94470044
:100020000C9447000C9447000C9447000C94470034
:100030000C9447000C9447000C9447000C94470024
:100040000C9447000C9447000C9447000C94470014
:100050000C94470011241FBECFE5D4E0DEBFCDBF16
:1000600010E0A0E6B0E0EEEFF2E002C005900D92E5
:10007000A037B107D9F710E0A0E7B0E001C01D92AA
:10008000A037B107E1F70E94D4000C947D010C94D5
:100090000000282F207F25BBA898A998AA9A20EDB8
:1000A00037E0F9013197F1F7AA98F9013197F1F7A3
:1000B00090E044E0880F991F4A95E1F785BBA89826
:1000C000A998AA9AC9010197F1F7AA98C9010197BD
:1000D000F1F7089582E090E00E94490088E290E004
:1000E0000E94490086E090E00E9449008CE090E088
:1000F0000E94490081E090E00E9449000895282F65
:10010000207F25BBA89AA998AA9A20ED37E0F9018B
:100110003197F1F7AA98F9013197F1F790E054E09F
:10012000880F991F5A95E1F785BBA89AA998AA9AB2
:10013000C9010197F1F7AA98C9010197F1F708954C
:10014000CF93DF93EC0103C00E947F00219688814A
:100150008823D1F7DF91CF910895CF93DF93EC01FE
:1001600084E00E9449000EC0CE016AE070E00E9467
:100170005601805D0E947F00CE016AE070E00E941F
:100180005601EB01209781F786E00E944900DF913C
:10019000CF910895806487B987ED86B9349BFECFEF
:1001A00024B135B1C90108959F92AF92BF92CF9209
:1001B000DF92EF92FF920F931F93CF93DF938FEF16
:1001C00084BB80E187BB0E946A0088EE93E028EC44
:1001D00030E0F9013197F1F70197D9F780E80E94F3
:1001E000490080E690E00E94A0008FEF81BBC0E054
:1001F000D0E099249394FAE1AF2EE0E2CE2EE3E032
:10020000DE2E72E0B72E68ECE62EF12C92BA8A2D23
:100210008A95F1F712BAC6010197F1F720E030E0B4
:1002200086B3813041F404C021968B2D8A95F1F775
:1002300086B38130C9F38B2D8A95F1F72F5F3F4F3D
:1002400080E92938380761F7CE0165E470E00E9443
:100250006A01162F072F862F972FEC0180EC0E9442
:1002600049008BE690E00E94A00088EE93E0F70141
:100270003197F1F70197D9F786EC0E944900812F59
:10028000902F0E94AD0088EE93E0F7013197F1F7CF
:100290000197D9F7BBCF81E082BB8AE18A95F1F75C
:1002A00012BA80E293E00197F1F70895AA1BBB1BF5
:1002B00051E107C0AA1FBB1FA617B70710F0A61B66
:1002C000B70B881F991F5A95A9F780959095BC0187
:1002D000CD01089597FB092E07260AD077FD04D09B
:1002E000E5DF06D000201AF4709561957F4F0895E0
:0E02F000F6F7909581959F4F0895F894FFCFF3
:1002FE005445434849454E455354004449535400D0
:00000001FF
