:100000000C942A000C9447000C9447000C94470071
:100010000C9447000C9447000C9447000C94470044
:100020000C9447000C9447000C9447000C94470034
:100030000C9447000C9447000C9447000C94470024
:100040000C9447000C9447000C9447000C94470014
:100050000C94470011241FBECFE5D4E0DEBFCDBF16
:1000600010E0A0E6B0E0E6EDF0E002C005900D92F1
:10007000A036B107D9F710E0A0E6B0E001C01D92AC
:10008000A036B107E1F70E9449000C9469000C9476
:1000900000008FEF84BB11BA4FE13FE027E093E00F
:1000A00080B3813011F485BBFBCF80B3823011F473
:1000B00095BBF6CF80B3833011F425BBF1CF80B36D
:1000C000843011F435BBECCF80B3853049F745BBA4
:0600D000E7CFF894FFCF1A
:00000001FF
