:100000000C942A000C9447000C9447000C94470071
:100010000C9447000C9447000C9447000C94470044
:100020000C9447000C9447000C9447000C94470034
:100030000C9447000C9447000C9447000C94470024
:100040000C9447000C9447000C9447000C94470014
:100050000C94470011241FBECFE5D4E0DEBFCDBF16
:1000600010E0A0E6B0E0E2E9F2E002C005900D92F7
:10007000A836B107D9F710E0A8E6B0E001C01D929C
:10008000A836B107E1F70E94D4000C9447010C9404
:100090000000282F207F25BBA898A998AA9A20EDB8
:1000A00037E0F9013197F1F7AA98F9013197F1F7A3
:1000B00090E044E0880F991F4A95E1F785BBA89826
:1000C000A998AA9AC9010197F1F7AA98C9010197BD
:1000D000F1F7089582E090E00E94490088E290E004
:1000E0000E94490086E090E00E9449008CE090E088
:1000F0000E94490081E090E00E9449000895282F65
:10010000207F25BBA89AA998AA9A20ED37E0F9018B
:100110003197F1F7AA98F9013197F1F790E054E09F
:10012000880F991F5A95E1F785BBA89AA998AA9AB2
:10013000C9010197F1F7AA98C9010197F1F708954C
:10014000CF93DF93EC0103C00E947F00219688814A
:100150008823D1F7DF91CF910895CF93DF93EC01FE
:1001600084E00E9449000EC0CE016AE070E00E9467
:100170002001805D0E947F00CE016AE070E00E9455
:100180002001EB01209781F786E00E944900DF9172
:10019000CF910895806487B987ED86B9349BFECFEF
:1001A00024B135B1C9010895EF92FF920F931F93C7
:1001B000CF93DF931ABA8FEF84BB0E946A0088EE58
:1001C00093E028EC30E0F9013197F1F70197D9F786
:1001D000E0E4EE2E77EDF72EC8ECD0E0E7B8F6B805
:1001E000349BFECF04B115B188EE93E0FE01319748
:1001F000F1F70197D9F785E80E94490080E690E081
:100200000E94A00080ED97E0FE013197F1F7019781
:10021000D9F784EC0E944900C801880F991F880F04
:10022000991F6AE070E00E943401CB010E94AD008A
:1002300088EE93E0FE013197F1F70197D9F7CECF21
:10024000AA1BBB1B51E107C0AA1FBB1FA617B707FC
:1002500010F0A61BB70B881F991F5A95A9F7809518
:100260009095BC01CD01089597FB092E07260AD071
:1002700077FD04D0E5DF06D000201AF47095619573
:100280007F4F0895F6F7909581959F4F0895F894C4
:02029000FFCF9E
:0802920057454C434F4D450058
:00000001FF
