:100000000C942A000C9447000C9447000C94470071
:100010000C9447000C9447000C9447000C94470044
:100020000C9447000C9447000C9447000C94470034
:100030000C9447000C9447000C9447000C94470024
:100040000C9447000C9447000C9447000C94470014
:100050000C94470011241FBECFE5D4E0DEBFCDBF16
:1000600010E0A0E6B0E0EEECF4E002C005900D92E6
:10007000AE3FB107D9F711E0AEEFB0E001C01D927D
:10008000AA30B107E1F70E943A010C9465020C9482
:100090000000AF92BF92CF92DF92EF92FF920F9348
:1000A0001F93DF93CF93CDB7DEB72A970FB6F8949F
:1000B000DEBF0FBECDBF8C01009729F45D9BFECF44
:1000C00080E38CB949C0EE24FF245E010894A11C92
:1000D000B11C88ECC82ED12CC8016AE070E00E94E7
:1000E0003E02282FC8016AE070E00E943E02AB0188
:1000F0008B01F501EE0DFF1D205D20830894E11CAE
:10010000F11C88EE93E0F6013197F1F70197D9F7EA
:10011000452B11F79E012E0D3F1DA0E0B0E0AE0172
:100120004A5F5F4F0AC0BA016A0F7B1FF9018081E5
:10013000FB018083119621503040AE15BF059CF322
:10014000A40FB51F1C92FA0104C05D9BFECF8CB9B1
:10015000319680818823C9F72A960FB6F894DEBFBE
:100160000FBECDBFCF91DF911F910F91FF90EF9008
:10017000DF90CF90BF90AF90089583E389B910BC12
:1001800088E18AB98EE880BD08955F9BFECF8CB16F
:1001900008955D9BFECF8CB90895FC0104C05D9B62
:1001A000FECF8CB9319680818823C9F70895482FF6
:1001B000E0E6F0E004C05D9BFECF8CB93196808113
:1001C0008823C9F75D9BFECF8DE08CB980E197E273
:1001D00028EC30E0F9013197F1F70197D9F7EAE619
:1001E000F0E004C05D9BFECF8CB9319680818823FE
:1001F000C9F75D9BFECF82E28CB920E030E0842F0E
:1002000090E005C05D9BFECFECB92F5F3F4FF90139
:10021000E80FF91FE081EE23A9F75D9BFECF82E294
:100220008CB95D9BFECF8DE08CB980E197E228EC24
:1002300030E0F9013197F1F70197D9F780E090E0CC
:1002400070E004C05D9BFECFECB90196FC01E60FA7
:10025000F71FE081EE23B1F75D9BFECF8AE18CB9F9
:1002600080E197E228EC30E0F9013197F1F701974E
:10027000D9F708952F923F924F925F926F927F929B
:100280008F929F92AF92BF92CF92DF92EF92FF92A6
:100290000F931F93DF93CF93CDB7DEB7E0970FB6E1
:1002A000F894DEBF0FBECDBF83E389B910BC88E1EF
:1002B0008AB98EE880BD88EE93E028EC30E0F90141
:1002C0003197F1F70197D9F7DE011196EAECF0E0EA
:1002D0008CE001900D928150E1F7DE011D96E7ED73
:1002E000F0E08CE001900D928150E1F7DE0159962B
:1002F000E4EEF0E08CE001900D928150E1F7DE0138
:100300009596E1EFF0E08CE001900D928150E1F7DD
:1003100020E030E0F5E22F2E312C2C0E3D1EE3E7DD
:10032000CE2EE0E0DE2E7FEB472E70E0572E68ECFD
:10033000E62EF12C55EA652E50E0752E4AE9842E02
:1003400040E0942E9FE8A92E90E0B92E0CC05F9B50
:10035000FECF8CB1F901E250FF4F80832F5F3F4FFA
:1003600002C020E030E02C3031058CF340E050E05A
:1003700060E070E0A0E0B0E000E010E020E030E0FD
:10038000F901E250FF4F9081E1E0F0E0EC0FFD1F3A
:10039000E20FF31F8081981711F44F5F5F4FEDE07C
:1003A000F0E0EC0FFD1FE20FF31F8081981711F4AE
:1003B0006F5F7F4FE9E1F0E0EC0FFD1FE20FF31FED
:1003C0008081981709F41196F101E20FF31F8081E3
:1003D000981711F40F5F1F4F2F5F3F4F2C303105DF
:1003E00079F64C30510561F46C2D8A2D0E94D700AE
:1003F00080E197E2F7013197F1F70197D9F7B1CF93
:100400006C30710561F46C2D882D0E94D70080E15D
:1004100097E2F7013197F1F70197D9F7A2CF1C972F
:1004200061F46C2D862D0E94D70080E197E2F701E0
:100430003197F1F70197D9F794CF0C30110519F0E6
:10044000E0EBF0E010C06C2D842D0E94D70080E11D
:1004500097E2F7013197F1F70197D9F782CF5D9BCA
:10046000FECF8CB9319680818823C9F784EF91E063
:10047000F7013197F1F70197D9F773CF97FB092E61
:1004800007260AD077FD04D00CD006D000201AF43D
:10049000709561957F4F0895F6F7909581959F4FE0
:1004A0000895AA1BBB1B51E107C0AA1FBB1FA617BB
:1004B000B70710F0A61BB70B881F991F5A95A9F70D
:0E04C00080959095BC01CD010895F894FFCF72
:1004CE0041542B434D47463D310041542B434D473C
:1004DE00533D00596F7572205761726420526561E9
:1004EE0063686564206174205363686F6F6C0037B6
:1004FE0038373738373636303600393532393639BF
:10050E0038333534003935303938383030393200F7
:10051E004E6F7420617574686F726973656400380C
:10052E003934363935323730370033423030324194
:10053E004638394437340031383030383935424650
:10054E00343345003138303038393346384432335D
:0E055E000031383030383931394541363200FD
:00000001FF
